{
    "abi": [
        {
            "type": "constructor",
            "inputs": [],
            "stateMutability": "nonpayable"
        },
        {
            "type": "receive",
            "stateMutability": "payable"
        },
        {
            "type": "function",
            "name": "BridgeFinalizeERC20",
            "inputs": [
                {
                    "name": "sourceChainId",
                    "type": "uint256",
                    "internalType": "uint256"
                },
                {
                    "name": "destChainId",
                    "type": "uint256",
                    "internalType": "uint256"
                },
                {
                    "name": "from",
                    "type": "address",
                    "internalType": "address"
                },
                {
                    "name": "to",
                    "type": "address",
                    "internalType": "address"
                },
                {
                    "name": "sourceTokenAddress",
                    "type": "address",
                    "internalType": "address"
                },
                {
                    "name": "destTokenAddress",
                    "type": "address",
                    "internalType": "address"
                },
                {
                    "name": "amount",
                    "type": "uint256",
                    "internalType": "uint256"
                },
                {
                    "name": "_fee",
                    "type": "uint256",
                    "internalType": "uint256"
                },
                {
                    "name": "_nonce",
                    "type": "uint256",
                    "internalType": "uint256"
                }
            ],
            "outputs": [
                {
                    "name": "",
                    "type": "bool",
                    "internalType": "bool"
                }
            ],
            "stateMutability": "nonpayable"
        },
        {
            "type": "function",
            "name": "BridgeFinalizeLocalNFT",
            "inputs": [
                {
                    "name": "sourceChainId",
                    "type": "uint256",
                    "internalType": "uint256"
                },
                {
                    "name": "destChainId",
                    "type": "uint256",
                    "internalType": "uint256"
                },
                {
                    "name": "localCollection",
                    "type": "address",
                    "internalType": "address"
                },
                {
                    "name": "remoteCollection",
                    "type": "address",
                    "internalType": "address"
                },
                {
                    "name": "from",
                    "type": "address",
                    "internalType": "address"
                },
                {
                    "name": "to",
                    "type": "address",
                    "internalType": "address"
                },
                {
                    "name": "tokenId",
                    "type": "uint256",
                    "internalType": "uint256"
                },
                {
                    "name": "feeAmount",
                    "type": "uint256",
                    "internalType": "uint256"
                },
                {
                    "name": "nonce",
                    "type": "uint256",
                    "internalType": "uint256"
                }
            ],
            "outputs": [
                {
                    "name": "",
                    "type": "bool",
                    "internalType": "bool"
                }
            ],
            "stateMutability": "nonpayable"
        },
        {
            "type": "function",
            "name": "BridgeFinalizeNativeToken",
            "inputs": [
                {
                    "name": "sourceChainId",
                    "type": "uint256",
                    "internalType": "uint256"
                },
                {
                    "name": "destChainId",
                    "type": "uint256",
                    "internalType": "uint256"
                },
                {
                    "name": "sourceTokenAddress",
                    "type": "address",
                    "internalType": "address"
                },
                {
                    "name": "from",
                    "type": "address",
                    "internalType": "address"
                },
                {
                    "name": "to",
                    "type": "address",
                    "internalType": "address"
                },
                {
                    "name": "amount",
                    "type": "uint256",
                    "internalType": "uint256"
                },
                {
                    "name": "_fee",
                    "type": "uint256",
                    "internalType": "uint256"
                },
                {
                    "name": "_nonce",
                    "type": "uint256",
                    "internalType": "uint256"
                }
            ],
            "outputs": [
                {
                    "name": "",
                    "type": "bool",
                    "internalType": "bool"
                }
            ],
            "stateMutability": "payable"
        },
        {
            "type": "function",
            "name": "BridgeInitiateERC20",
            "inputs": [
                {
                    "name": "sourceChainId",
                    "type": "uint256",
                    "internalType": "uint256"
                },
                {
                    "name": "destChainId",
                    "type": "uint256",
                    "internalType": "uint256"
                },
                {
                    "name": "to",
                    "type": "address",
                    "internalType": "address"
                },
                {
                    "name": "sourceTokenAddress",
                    "type": "address",
                    "internalType": "address"
                },
                {
                    "name": "destTokenAddress",
                    "type": "address",
                    "internalType": "address"
                },
                {
                    "name": "value",
                    "type": "uint256",
                    "internalType": "uint256"
                }
            ],
            "outputs": [
                {
                    "name": "",
                    "type": "bool",
                    "internalType": "bool"
                }
            ],
            "stateMutability": "payable"
        },
        {
            "type": "function",
            "name": "BridgeInitiateLocalNFT",
            "inputs": [
                {
                    "name": "sourceChainId",
                    "type": "uint256",
                    "internalType": "uint256"
                },
                {
                    "name": "destChainId",
                    "type": "uint256",
                    "internalType": "uint256"
                },
                {
                    "name": "localCollection",
                    "type": "address",
                    "internalType": "address"
                },
                {
                    "name": "remoteCollection",
                    "type": "address",
                    "internalType": "address"
                },
                {
                    "name": "tokenId",
                    "type": "uint256",
                    "internalType": "uint256"
                },
                {
                    "name": "to",
                    "type": "address",
                    "internalType": "address"
                }
            ],
            "outputs": [
                {
                    "name": "",
                    "type": "bool",
                    "internalType": "bool"
                }
            ],
            "stateMutability": "payable"
        },
        {
            "type": "function",
            "name": "BridgeInitiateNativeToken",
            "inputs": [
                {
                    "name": "sourceChainId",
                    "type": "uint256",
                    "internalType": "uint256"
                },
                {
                    "name": "destChainId",
                    "type": "uint256",
                    "internalType": "uint256"
                },
                {
                    "name": "destTokenAddress",
                    "type": "address",
                    "internalType": "address"
                },
                {
                    "name": "to",
                    "type": "address",
                    "internalType": "address"
                }
            ],
            "outputs": [
                {
                    "name": "",
                    "type": "bool",
                    "internalType": "bool"
                }
            ],
            "stateMutability": "payable"
        },
        {
            "type": "function",
            "name": "FeePoolValue",
            "inputs": [
                {
                    "name": "",
                    "type": "address",
                    "internalType": "address"
                }
            ],
            "outputs": [
                {
                    "name": "",
                    "type": "uint256",
                    "internalType": "uint256"
                }
            ],
            "stateMutability": "view"
        },
        {
            "type": "function",
            "name": "FundingPoolBalance",
            "inputs": [
                {
                    "name": "",
                    "type": "address",
                    "internalType": "address"
                }
            ],
            "outputs": [
                {
                    "name": "",
                    "type": "uint256",
                    "internalType": "uint256"
                }
            ],
            "stateMutability": "view"
        },
        {
            "type": "function",
            "name": "IsSupportToken",
            "inputs": [
                {
                    "name": "",
                    "type": "address",
                    "internalType": "address"
                }
            ],
            "outputs": [
                {
                    "name": "",
                    "type": "bool",
                    "internalType": "bool"
                }
            ],
            "stateMutability": "view"
        },
        {
            "type": "function",
            "name": "IsSupportedChainId",
            "inputs": [
                {
                    "name": "",
                    "type": "uint256",
                    "internalType": "uint256"
                }
            ],
            "outputs": [
                {
                    "name": "",
                    "type": "bool",
                    "internalType": "bool"
                }
            ],
            "stateMutability": "view"
        },
        {
            "type": "function",
            "name": "NFTFeePool",
            "inputs": [
                {
                    "name": "",
                    "type": "address",
                    "internalType": "address"
                }
            ],
            "outputs": [
                {
                    "name": "",
                    "type": "uint256",
                    "internalType": "uint256"
                }
            ],
            "stateMutability": "view"
        },
        {
            "type": "function",
            "name": "NativeTokenAddress",
            "inputs": [],
            "outputs": [
                {
                    "name": "",
                    "type": "address",
                    "internalType": "address"
                }
            ],
            "stateMutability": "view"
        },
        {
            "type": "function",
            "name": "QuickSendAssertToUser",
            "inputs": [
                {
                    "name": "_token",
                    "type": "address",
                    "internalType": "address"
                },
                {
                    "name": "to",
                    "type": "address",
                    "internalType": "address"
                },
                {
                    "name": "_amount",
                    "type": "uint256",
                    "internalType": "uint256"
                }
            ],
            "outputs": [],
            "stateMutability": "nonpayable"
        },
        {
            "type": "function",
            "name": "SupportTokens",
            "inputs": [
                {
                    "name": "",
                    "type": "uint256",
                    "internalType": "uint256"
                }
            ],
            "outputs": [
                {
                    "name": "",
                    "type": "address",
                    "internalType": "address"
                }
            ],
            "stateMutability": "view"
        },
        {
            "type": "function",
            "name": "TokenMaxTransferAmount",
            "inputs": [
                {
                    "name": "",
                    "type": "address",
                    "internalType": "address"
                }
            ],
            "outputs": [
                {
                    "name": "",
                    "type": "uint256",
                    "internalType": "uint256"
                }
            ],
            "stateMutability": "view"
        },
        {
            "type": "function",
            "name": "TokenMinTransferAmount",
            "inputs": [
                {
                    "name": "",
                    "type": "address",
                    "internalType": "address"
                }
            ],
            "outputs": [
                {
                    "name": "",
                    "type": "uint256",
                    "internalType": "uint256"
                }
            ],
            "stateMutability": "view"
        },
        {
            "type": "function",
            "name": "assetBalanceMessager",
            "inputs": [],
            "outputs": [
                {
                    "name": "",
                    "type": "address",
                    "internalType": "address"
                }
            ],
            "stateMutability": "view"
        },
        {
            "type": "function",
            "name": "depositErc20ToBridge",
            "inputs": [
                {
                    "name": "tokenAddress",
                    "type": "address",
                    "internalType": "address"
                },
                {
                    "name": "amount",
                    "type": "uint256",
                    "internalType": "uint256"
                }
            ],
            "outputs": [
                {
                    "name": "",
                    "type": "bool",
                    "internalType": "bool"
                }
            ],
            "stateMutability": "nonpayable"
        },
        {
            "type": "function",
            "name": "depositNativeTokenToBridge",
            "inputs": [],
            "outputs": [
                {
                    "name": "",
                    "type": "bool",
                    "internalType": "bool"
                }
            ],
            "stateMutability": "payable"
        },
        {
            "type": "function",
            "name": "dolChainId",
            "inputs": [],
            "outputs": [
                {
                    "name": "",
                    "type": "uint256",
                    "internalType": "uint256"
                }
            ],
            "stateMutability": "view"
        },
        {
            "type": "function",
            "name": "gasOracleAddress",
            "inputs": [],
            "outputs": [
                {
                    "name": "",
                    "type": "address",
                    "internalType": "address"
                }
            ],
            "stateMutability": "view"
        },
        {
            "type": "function",
            "name": "initialize",
            "inputs": [
                {
                    "name": "initialOwner",
                    "type": "address",
                    "internalType": "address"
                },
                {
                    "name": "_messageManager",
                    "type": "address",
                    "internalType": "address"
                },
                {
                    "name": "_relayerAddress",
                    "type": "address",
                    "internalType": "address"
                },
                {
                    "name": "_withdrawManager",
                    "type": "address",
                    "internalType": "address"
                },
                {
                    "name": "_gasOracleAddress",
                    "type": "address",
                    "internalType": "address"
                },
                {
                    "name": "_dolChainId",
                    "type": "uint256",
                    "internalType": "uint256"
                }
            ],
            "outputs": [],
            "stateMutability": "nonpayable"
        },
        {
            "type": "function",
            "name": "messageManager",
            "inputs": [],
            "outputs": [
                {
                    "name": "",
                    "type": "address",
                    "internalType": "contract IMessageManager"
                }
            ],
            "stateMutability": "view"
        },
        {
            "type": "function",
            "name": "nativeBridgeFee",
            "inputs": [
                {
                    "name": "",
                    "type": "uint256",
                    "internalType": "uint256"
                }
            ],
            "outputs": [
                {
                    "name": "",
                    "type": "uint256",
                    "internalType": "uint256"
                }
            ],
            "stateMutability": "view"
        },
        {
            "type": "function",
            "name": "onERC721Received",
            "inputs": [
                {
                    "name": "",
                    "type": "address",
                    "internalType": "address"
                },
                {
                    "name": "",
                    "type": "address",
                    "internalType": "address"
                },
                {
                    "name": "",
                    "type": "uint256",
                    "internalType": "uint256"
                },
                {
                    "name": "",
                    "type": "bytes",
                    "internalType": "bytes"
                }
            ],
            "outputs": [
                {
                    "name": "",
                    "type": "bytes4",
                    "internalType": "bytes4"
                }
            ],
            "stateMutability": "nonpayable"
        },
        {
            "type": "function",
            "name": "owner",
            "inputs": [],
            "outputs": [
                {
                    "name": "",
                    "type": "address",
                    "internalType": "address"
                }
            ],
            "stateMutability": "view"
        },
        {
            "type": "function",
            "name": "pause",
            "inputs": [],
            "outputs": [],
            "stateMutability": "nonpayable"
        },
        {
            "type": "function",
            "name": "paused",
            "inputs": [],
            "outputs": [
                {
                    "name": "",
                    "type": "bool",
                    "internalType": "bool"
                }
            ],
            "stateMutability": "view"
        },
        {
            "type": "function",
            "name": "relayerAddress",
            "inputs": [],
            "outputs": [
                {
                    "name": "",
                    "type": "address",
                    "internalType": "address"
                }
            ],
            "stateMutability": "view"
        },
        {
            "type": "function",
            "name": "renounceOwnership",
            "inputs": [],
            "outputs": [],
            "stateMutability": "nonpayable"
        },
        {
            "type": "function",
            "name": "setMaxTransferAmount",
            "inputs": [
                {
                    "name": "_tokenAddress",
                    "type": "address[]",
                    "internalType": "address[]"
                },
                {
                    "name": "_maxTransferAmount",
                    "type": "uint256[]",
                    "internalType": "uint256[]"
                }
            ],
            "outputs": [],
            "stateMutability": "nonpayable"
        },
        {
            "type": "function",
            "name": "setMinTransferAmount",
            "inputs": [
                {
                    "name": "_tokenAddress",
                    "type": "address[]",
                    "internalType": "address[]"
                },
                {
                    "name": "_minTransferAmount",
                    "type": "uint256[]",
                    "internalType": "uint256[]"
                }
            ],
            "outputs": [],
            "stateMutability": "nonpayable"
        },
        {
            "type": "function",
            "name": "setNativeBridgeFee",
            "inputs": [
                {
                    "name": "_destChainIds",
                    "type": "uint256[]",
                    "internalType": "uint256[]"
                },
                {
                    "name": "_fees",
                    "type": "uint256[]",
                    "internalType": "uint256[]"
                }
            ],
            "outputs": [],
            "stateMutability": "nonpayable"
        },
        {
            "type": "function",
            "name": "setSupportERC20Token",
            "inputs": [
                {
                    "name": "ERC20Address",
                    "type": "address",
                    "internalType": "address"
                },
                {
                    "name": "isValid",
                    "type": "bool",
                    "internalType": "bool"
                }
            ],
            "outputs": [],
            "stateMutability": "nonpayable"
        },
        {
            "type": "function",
            "name": "setValidChainId",
            "inputs": [
                {
                    "name": "chainId",
                    "type": "uint256",
                    "internalType": "uint256"
                },
                {
                    "name": "isValid",
                    "type": "bool",
                    "internalType": "bool"
                }
            ],
            "outputs": [],
            "stateMutability": "nonpayable"
        },
        {
            "type": "function",
            "name": "transferOwnership",
            "inputs": [
                {
                    "name": "newOwner",
                    "type": "address",
                    "internalType": "address"
                }
            ],
            "outputs": [],
            "stateMutability": "nonpayable"
        },
        {
            "type": "function",
            "name": "unpause",
            "inputs": [],
            "outputs": [],
            "stateMutability": "nonpayable"
        },
        {
            "type": "function",
            "name": "withdrawErc20FromBridge",
            "inputs": [
                {
                    "name": "tokenAddress",
                    "type": "address",
                    "internalType": "address"
                },
                {
                    "name": "withdrawAddress",
                    "type": "address",
                    "internalType": "address"
                },
                {
                    "name": "amount",
                    "type": "uint256",
                    "internalType": "uint256"
                }
            ],
            "outputs": [
                {
                    "name": "",
                    "type": "bool",
                    "internalType": "bool"
                }
            ],
            "stateMutability": "nonpayable"
        },
        {
            "type": "function",
            "name": "withdrawFeeValue",
            "inputs": [
                {
                    "name": "tokenAddress",
                    "type": "address",
                    "internalType": "address"
                },
                {
                    "name": "withdrawAddress",
                    "type": "address",
                    "internalType": "address"
                },
                {
                    "name": "amount",
                    "type": "uint256",
                    "internalType": "uint256"
                }
            ],
            "outputs": [
                {
                    "name": "",
                    "type": "bool",
                    "internalType": "bool"
                }
            ],
            "stateMutability": "nonpayable"
        },
        {
            "type": "function",
            "name": "withdrawManager",
            "inputs": [],
            "outputs": [
                {
                    "name": "",
                    "type": "address",
                    "internalType": "address"
                }
            ],
            "stateMutability": "view"
        },
        {
            "type": "function",
            "name": "withdrawNativeTokenFromBridge",
            "inputs": [
                {
                    "name": "withdrawAddress",
                    "type": "address",
                    "internalType": "address payable"
                },
                {
                    "name": "amount",
                    "type": "uint256",
                    "internalType": "uint256"
                }
            ],
            "outputs": [
                {
                    "name": "",
                    "type": "bool",
                    "internalType": "bool"
                }
            ],
            "stateMutability": "payable"
        },
        {
            "type": "event",
            "name": "DepositToken",
            "inputs": [
                {
                    "name": "tokenAddress",
                    "type": "address",
                    "indexed": true,
                    "internalType": "address"
                },
                {
                    "name": "sender",
                    "type": "address",
                    "indexed": true,
                    "internalType": "address"
                },
                {
                    "name": "amount",
                    "type": "uint256",
                    "indexed": false,
                    "internalType": "uint256"
                }
            ],
            "anonymous": false
        },
        {
            "type": "event",
            "name": "FinalizeERC20",
            "inputs": [
                {
                    "name": "sourceChainId",
                    "type": "uint256",
                    "indexed": false,
                    "internalType": "uint256"
                },
                {
                    "name": "destChainId",
                    "type": "uint256",
                    "indexed": false,
                    "internalType": "uint256"
                },
                {
                    "name": "sourceTokenAddress",
                    "type": "address",
                    "indexed": false,
                    "internalType": "address"
                },
                {
                    "name": "destTokenAddress",
                    "type": "address",
                    "indexed": false,
                    "internalType": "address"
                },
                {
                    "name": "from",
                    "type": "address",
                    "indexed": true,
                    "internalType": "address"
                },
                {
                    "name": "to",
                    "type": "address",
                    "indexed": true,
                    "internalType": "address"
                },
                {
                    "name": "value",
                    "type": "uint256",
                    "indexed": false,
                    "internalType": "uint256"
                }
            ],
            "anonymous": false
        },
        {
            "type": "event",
            "name": "FinalizeLocalNFT",
            "inputs": [
                {
                    "name": "sourceChainId",
                    "type": "uint256",
                    "indexed": false,
                    "internalType": "uint256"
                },
                {
                    "name": "destChainId",
                    "type": "uint256",
                    "indexed": false,
                    "internalType": "uint256"
                },
                {
                    "name": "sourceCollection",
                    "type": "address",
                    "indexed": false,
                    "internalType": "address"
                },
                {
                    "name": "remoteCollection",
                    "type": "address",
                    "indexed": false,
                    "internalType": "address"
                },
                {
                    "name": "from",
                    "type": "address",
                    "indexed": false,
                    "internalType": "address"
                },
                {
                    "name": "to",
                    "type": "address",
                    "indexed": false,
                    "internalType": "address"
                },
                {
                    "name": "tokenId",
                    "type": "uint256",
                    "indexed": false,
                    "internalType": "uint256"
                }
            ],
            "anonymous": false
        },
        {
            "type": "event",
            "name": "FinalizeNativeToken",
            "inputs": [
                {
                    "name": "sourceChainId",
                    "type": "uint256",
                    "indexed": false,
                    "internalType": "uint256"
                },
                {
                    "name": "destChainId",
                    "type": "uint256",
                    "indexed": false,
                    "internalType": "uint256"
                },
                {
                    "name": "sourceTokenAddress",
                    "type": "address",
                    "indexed": false,
                    "internalType": "address"
                },
                {
                    "name": "from",
                    "type": "address",
                    "indexed": true,
                    "internalType": "address"
                },
                {
                    "name": "to",
                    "type": "address",
                    "indexed": true,
                    "internalType": "address"
                },
                {
                    "name": "value",
                    "type": "uint256",
                    "indexed": false,
                    "internalType": "uint256"
                }
            ],
            "anonymous": false
        },
        {
            "type": "event",
            "name": "Initialized",
            "inputs": [
                {
                    "name": "version",
                    "type": "uint64",
                    "indexed": false,
                    "internalType": "uint64"
                }
            ],
            "anonymous": false
        },
        {
            "type": "event",
            "name": "InitiateERC20",
            "inputs": [
                {
                    "name": "sourceChainId",
                    "type": "uint256",
                    "indexed": false,
                    "internalType": "uint256"
                },
                {
                    "name": "destChainId",
                    "type": "uint256",
                    "indexed": false,
                    "internalType": "uint256"
                },
                {
                    "name": "sourceTokenAddress",
                    "type": "address",
                    "indexed": false,
                    "internalType": "address"
                },
                {
                    "name": "destTokenAddress",
                    "type": "address",
                    "indexed": false,
                    "internalType": "address"
                },
                {
                    "name": "from",
                    "type": "address",
                    "indexed": true,
                    "internalType": "address"
                },
                {
                    "name": "to",
                    "type": "address",
                    "indexed": true,
                    "internalType": "address"
                },
                {
                    "name": "value",
                    "type": "uint256",
                    "indexed": false,
                    "internalType": "uint256"
                }
            ],
            "anonymous": false
        },
        {
            "type": "event",
            "name": "InitiateLocalNFT",
            "inputs": [
                {
                    "name": "sourceChainId",
                    "type": "uint256",
                    "indexed": false,
                    "internalType": "uint256"
                },
                {
                    "name": "destChainId",
                    "type": "uint256",
                    "indexed": false,
                    "internalType": "uint256"
                },
                {
                    "name": "localCollection",
                    "type": "address",
                    "indexed": false,
                    "internalType": "address"
                },
                {
                    "name": "remoteCollection",
                    "type": "address",
                    "indexed": false,
                    "internalType": "address"
                },
                {
                    "name": "from",
                    "type": "address",
                    "indexed": false,
                    "internalType": "address"
                },
                {
                    "name": "to",
                    "type": "address",
                    "indexed": false,
                    "internalType": "address"
                },
                {
                    "name": "tokenId",
                    "type": "uint256",
                    "indexed": false,
                    "internalType": "uint256"
                },
                {
                    "name": "feeAmount",
                    "type": "uint256",
                    "indexed": false,
                    "internalType": "uint256"
                }
            ],
            "anonymous": false
        },
        {
            "type": "event",
            "name": "InitiateNativeToken",
            "inputs": [
                {
                    "name": "sourceChainId",
                    "type": "uint256",
                    "indexed": false,
                    "internalType": "uint256"
                },
                {
                    "name": "destChainId",
                    "type": "uint256",
                    "indexed": false,
                    "internalType": "uint256"
                },
                {
                    "name": "destTokenAddress",
                    "type": "address",
                    "indexed": false,
                    "internalType": "address"
                },
                {
                    "name": "from",
                    "type": "address",
                    "indexed": true,
                    "internalType": "address"
                },
                {
                    "name": "to",
                    "type": "address",
                    "indexed": true,
                    "internalType": "address"
                },
                {
                    "name": "value",
                    "type": "uint256",
                    "indexed": false,
                    "internalType": "uint256"
                }
            ],
            "anonymous": false
        },
        {
            "type": "event",
            "name": "OwnershipTransferred",
            "inputs": [
                {
                    "name": "previousOwner",
                    "type": "address",
                    "indexed": true,
                    "internalType": "address"
                },
                {
                    "name": "newOwner",
                    "type": "address",
                    "indexed": true,
                    "internalType": "address"
                }
            ],
            "anonymous": false
        },
        {
            "type": "event",
            "name": "Paused",
            "inputs": [
                {
                    "name": "account",
                    "type": "address",
                    "indexed": false,
                    "internalType": "address"
                }
            ],
            "anonymous": false
        },
        {
            "type": "event",
            "name": "SetMaxTransferAmount",
            "inputs": [
                {
                    "name": "MaxTransferAmount",
                    "type": "uint256",
                    "indexed": false,
                    "internalType": "uint256"
                },
                {
                    "name": "isERC20",
                    "type": "bool",
                    "indexed": false,
                    "internalType": "bool"
                }
            ],
            "anonymous": false
        },
        {
            "type": "event",
            "name": "SetMinTransferAmount",
            "inputs": [
                {
                    "name": "MinTransferAmount",
                    "type": "uint256",
                    "indexed": false,
                    "internalType": "uint256"
                }
            ],
            "anonymous": false
        },
        {
            "type": "event",
            "name": "SetNativeBridgeFee",
            "inputs": [
                {
                    "name": "destChainId",
                    "type": "uint256[]",
                    "indexed": false,
                    "internalType": "uint256[]"
                },
                {
                    "name": "fee",
                    "type": "uint256[]",
                    "indexed": false,
                    "internalType": "uint256[]"
                }
            ],
            "anonymous": false
        },
        {
            "type": "event",
            "name": "SetSupportTokenEvent",
            "inputs": [
                {
                    "name": "token",
                    "type": "address",
                    "indexed": true,
                    "internalType": "address"
                },
                {
                    "name": "isSupport",
                    "type": "bool",
                    "indexed": false,
                    "internalType": "bool"
                },
                {
                    "name": "chainId",
                    "type": "uint256",
                    "indexed": false,
                    "internalType": "uint256"
                }
            ],
            "anonymous": false
        },
        {
            "type": "event",
            "name": "SetValidChainId",
            "inputs": [
                {
                    "name": "chainId",
                    "type": "uint256",
                    "indexed": false,
                    "internalType": "uint256"
                },
                {
                    "name": "isValid",
                    "type": "bool",
                    "indexed": false,
                    "internalType": "bool"
                }
            ],
            "anonymous": false
        },
        {
            "type": "event",
            "name": "Unpaused",
            "inputs": [
                {
                    "name": "account",
                    "type": "address",
                    "indexed": false,
                    "internalType": "address"
                }
            ],
            "anonymous": false
        },
        {
            "type": "event",
            "name": "Withdraw",
            "inputs": [
                {
                    "name": "_user",
                    "type": "address",
                    "indexed": false,
                    "internalType": "address"
                },
                {
                    "name": "startPoolId",
                    "type": "uint256",
                    "indexed": false,
                    "internalType": "uint256"
                },
                {
                    "name": "EndPoolId",
                    "type": "uint256",
                    "indexed": false,
                    "internalType": "uint256"
                },
                {
                    "name": "chainId",
                    "type": "uint256",
                    "indexed": false,
                    "internalType": "uint256"
                },
                {
                    "name": "_token",
                    "type": "address",
                    "indexed": false,
                    "internalType": "address"
                },
                {
                    "name": "Amount",
                    "type": "uint256",
                    "indexed": false,
                    "internalType": "uint256"
                },
                {
                    "name": "Reward",
                    "type": "uint256",
                    "indexed": false,
                    "internalType": "uint256"
                }
            ],
            "anonymous": false
        },
        {
            "type": "event",
            "name": "WithdrawToken",
            "inputs": [
                {
                    "name": "tokenAddress",
                    "type": "address",
                    "indexed": true,
                    "internalType": "address"
                },
                {
                    "name": "sender",
                    "type": "address",
                    "indexed": false,
                    "internalType": "address"
                },
                {
                    "name": "withdrawAddress",
                    "type": "address",
                    "indexed": false,
                    "internalType": "address"
                },
                {
                    "name": "amount",
                    "type": "uint256",
                    "indexed": false,
                    "internalType": "uint256"
                }
            ],
            "anonymous": false
        },
        {
            "type": "error",
            "name": "ChainIdIsNotSupported",
            "inputs": [
                {
                    "name": "id",
                    "type": "uint256",
                    "internalType": "uint256"
                }
            ]
        },
        {
            "type": "error",
            "name": "ChainIdNotSupported",
            "inputs": [
                {
                    "name": "chainId",
                    "type": "uint256",
                    "internalType": "uint256"
                }
            ]
        },
        {
            "type": "error",
            "name": "EnforcedPause",
            "inputs": []
        },
        {
            "type": "error",
            "name": "ErrorBlockChain",
            "inputs": []
        },
        {
            "type": "error",
            "name": "ExpectedPause",
            "inputs": []
        },
        {
            "type": "error",
            "name": "InvalidInitialization",
            "inputs": []
        },
        {
            "type": "error",
            "name": "LessThanMinTransferAmount",
            "inputs": [
                {
                    "name": "MinTransferAmount",
                    "type": "uint256",
                    "internalType": "uint256"
                },
                {
                    "name": "value",
                    "type": "uint256",
                    "internalType": "uint256"
                }
            ]
        },
        {
            "type": "error",
            "name": "LessThanZero",
            "inputs": [
                {
                    "name": "amount",
                    "type": "uint256",
                    "internalType": "uint256"
                }
            ]
        },
        {
            "type": "error",
            "name": "MoreThanMaxTransferAmount",
            "inputs": [
                {
                    "name": "MinTransferAmount",
                    "type": "uint256",
                    "internalType": "uint256"
                },
                {
                    "name": "value",
                    "type": "uint256",
                    "internalType": "uint256"
                }
            ]
        },
        {
            "type": "error",
            "name": "NotEnoughNativeToken",
            "inputs": []
        },
        {
            "type": "error",
            "name": "NotEnoughToken",
            "inputs": [
                {
                    "name": "ERC20Address",
                    "type": "address",
                    "internalType": "address"
                }
            ]
        },
        {
            "type": "error",
            "name": "NotInitializing",
            "inputs": []
        },
        {
            "type": "error",
            "name": "OutOfRange",
            "inputs": [
                {
                    "name": "PoolId",
                    "type": "uint256",
                    "internalType": "uint256"
                },
                {
                    "name": "PoolLength",
                    "type": "uint256",
                    "internalType": "uint256"
                }
            ]
        },
        {
            "type": "error",
            "name": "OwnableInvalidOwner",
            "inputs": [
                {
                    "name": "owner",
                    "type": "address",
                    "internalType": "address"
                }
            ]
        },
        {
            "type": "error",
            "name": "OwnableUnauthorizedAccount",
            "inputs": [
                {
                    "name": "account",
                    "type": "address",
                    "internalType": "address"
                }
            ]
        },
        {
            "type": "error",
            "name": "ReentrancyGuardReentrantCall",
            "inputs": []
        },
        {
            "type": "error",
            "name": "SafeERC20FailedOperation",
            "inputs": [
                {
                    "name": "token",
                    "type": "address",
                    "internalType": "address"
                }
            ]
        },
        {
            "type": "error",
            "name": "TokenIsAlreadySupported",
            "inputs": [
                {
                    "name": "token",
                    "type": "address",
                    "internalType": "address"
                },
                {
                    "name": "isSupported",
                    "type": "bool",
                    "internalType": "bool"
                }
            ]
        },
        {
            "type": "error",
            "name": "TokenIsNotSupported",
            "inputs": [
                {
                    "name": "ERC20Address",
                    "type": "address",
                    "internalType": "address"
                }
            ]
        },
        {
            "type": "error",
            "name": "TransferNativeTokenFailed",
            "inputs": []
        },
        {
            "type": "error",
            "name": "Zero",
            "inputs": [
                {
                    "name": "amount",
                    "type": "uint256",
                    "internalType": "uint256"
                }
            ]
        },
        {
            "type": "error",
            "name": "sourceChainIdError",
            "inputs": []
        },
        {
            "type": "error",
            "name": "sourceChainIsDestChainError",
            "inputs": []
        }
    ],
    "bytecode": {
        "object": "0x6080806040523460aa575f5160206132585f395f51905f525460ff8160401c16609b576002600160401b03196001600160401b038216016049575b6040516131a990816100af8239f35b6001600160401b0319166001600160401b039081175f5160206132585f395f51905f525581527fc7f505b2f371ae2175ee4913f4499e1f2633a7b5936321eed1cdaeb6115181d290602090a15f80603a565b63f92ee8a960e01b5f5260045ffd5b5f80fdfe6080806040526004361015610024575b50361561001a575f80fd5b610022612e17565b005b5f905f3560e01c9081630494e93d146126ed5750806310875a13146126c5578063131ba0311461235c578063150b7a02146122cd57806318a7cca8146122a4578063240d1c7714612180578063325e5d4314611fb657806334fa7f7014611ecd5780633b6f48d614611c875780633f4ba83a14611c075780634c79e3ef14611be95780634eb71542146117f057806354dc027e146117b757806355bd5915146116b65780635bc65b40146116875780635c975abb146116585780636068c993146115e257806360ba33ff14611513578063626417b5146114cf5780636ec9f812146111ed578063715018a61461118457806372ad6b9b14610e6a578063786a8f5814610e415780637ce1312514610e215780638456cb5914610dae5780638da5cb5b14610d7957806395b6ef0c14610b6e5780639b83152514610b465780639c01443214610b1d578063ab0f9e19146109dc578063ace30491146109a3578063d52b4df91461067d578063d62a667314610653578063d73f14e5146105a5578063dac2956814610566578063dbb0481f1461052d578063e1fe15c2146103cd578063e7bb7e6314610395578063ec3e9da51461036c578063f2fde38b1461033f5763fcd9c8160361000f573461033c576101fd366128c0565b60035491949392916001600160a01b03163314801561031c575b156102b157610227818314612c61565b835b82811061028357507ff64514b14e4ba615f1ed6b58f14d9175644f681fbad6b4a1bc62f06b826a7e60939461027d9161026f604051958695604087526040870191612f0e565b918483036020860152612f0e565b0390a180f35b806102916001928587612cc6565b3561029d82858a612cc6565b359087526005602052604087205501610229565b60405162461bcd60e51b815260206004820152603c60248201527f506f6f6c4d616e616765723a6f6e6c794761734f7261636c65206f6e6c79206760448201527f6173206f7261636c652063616c6c20746869732066756e6374696f6e000000006064820152608490fd5b505f5160206130d45f395f51905f52546001600160a01b03163314610217565b80fd5b503461033c57602036600319011261033c5761036961035c612721565b610364612fa3565b612e9d565b80f35b503461033c578060031936011261033c576009546040516001600160a01b039091168152602090f35b503461033c57602036600319011261033c576020906040906001600160a01b036103bd612721565b1681528083522054604051908152f35b503461033c576103dc366128c0565b92909160018060a01b03600254163314801561050d575b6103fc9061294d565b8381036104af57845b818110610410578580f35b61042361041e828486612cc6565b612cd6565b9061042f818787612cc6565b6001600160a01b039092169135821561045657600192885287602052604088205501610405565b60405162461bcd60e51b815260206004820152602b60248201527f506f6f6c4d616e616765723a7365744d696e5472616e73666572416d6f756e7460448201526a103d32b937903a37b5b2b760a91b6064820152608490fd5b60405162461bcd60e51b815260206004820152603060248201527f506f6f6c4d616e616765723a7365744d696e5472616e73666572416d6f756e7460448201526f040d8cadccee8d040dad2e6dac2e8c6d60831b6064820152608490fd5b505f5160206130d45f395f51905f52546001600160a01b031633146103f3565b503461033c57602036600319011261033c576020906040906001600160a01b03610555612721565b168152600c83522054604051908152f35b503461033c57602036600319011261033c5760209060ff906040906001600160a01b03610591612721565b168152600b84522054166040519015158152f35b503461033c57604036600319011261033c577f756e8389496652aad1bd6bd9ea1e81b5b53341a798eb468701bb68403594c95060406004356105e561293e565b6002546001600160a01b031633148015610633575b6106039061294d565b818552600a602052610623818487209060ff801983541691151516179055565b825191825215156020820152a180f35b505f5160206130d45f395f51905f52546001600160a01b031633146105fa565b503461033c57602036600319011261033c5760406020916004358152600583522054604051908152f35b5060c036600319011261033c5760043560243561069861274d565b916106a1612763565b6084359160a435916001600160a01b038316830361099f576106c1612f32565b6106c9612fd6565b46820361099057848752600a60205260ff6040882054161561097c576004548083149086148180610974575b158061095e575b61090557816108fc575b50156108ec5784875260056020526040872054968734106108a75761072b8834612b24565b8181610888575b5f5160206130f45f395f51905f52915052600d60205260408120610757898254612c0b565b90555b6001600160a01b038716803b1561086f57604051632142170760e11b8152336004820152306024820152604481018790529082908290606490829084905af1801561086457908291610873575b50506006546001600160a01b0316803b1561086f57818385928a838b6107e88f8d8d6040519a8b998a988997635478424f60e11b8952339360048a01612c18565b03925af180156108645761084f575b50509161083093917fff2f9d792abd783352a9abd1f37581c580334ad5b8d84da9693a8d0e05374e2a9793604051978897339389612c18565b0390a160015f5160206131345f395f51905f5255602060405160018152f35b61085a828092612803565b61033c57806107f7565b6040513d84823e3d90fd5b5080fd5b8161087d91612803565b61033c57805f6107a7565b8080806108a094335af161089a612b45565b50612bcf565b5f81610732565b60405162461bcd60e51b815260206004820152601760248201527f696e73756666696369656e74206e6174697665206665650000000000000000006044820152606490fd5b6108f63415612b74565b8661075a565b9050155f610706565b60405162461bcd60e51b815260206004820152602b60248201527f4272696467653a206f6e6c7920444f4c203c2d3e206f7468657220636861696e60448201526a1cc81cdd5c1c1bdc9d195960aa1b6064820152608490fd5b5081158061096d575b156106fc565b5080610967565b5080156106f5565b632ef6974160e11b87526004859052602487fd5b631a26aa4d60e21b8752600487fd5b8680fd5b503461033c57602036600319011261033c576020906040906001600160a01b036109cb612721565b168152600183522054604051908152f35b503461033c57604036600319011261033c576109f6612721565b6109fe61293e565b9060018060a01b036002541633148015610afd575b610a1c9061294d565b6001600160a01b0316808352600b60205260408320805460ff191660ff841515161790559080610a7c575b60407ff37cdf0b5a2a780dfbdbd1bb6f8a3bcdf62c8941ba001debfa56dfd8eab89b6c9181519015158152466020820152a280f35b60075468010000000000000000811015610ae9577ff37cdf0b5a2a780dfbdbd1bb6f8a3bcdf62c8941ba001debfa56dfd8eab89b6c91610ac482600160409401600755612912565b81546001600160a01b0360039290921b91821b19169086901b1790559150610a479050565b634e487b7160e01b84526041600452602484fd5b505f5160206130d45f395f51905f52546001600160a01b03163314610a13565b503461033c578060031936011261033c576008546040516001600160a01b039091168152602090f35b503461033c578060031936011261033c5760206040515f5160206130f45f395f51905f528152f35b503461033c5760c036600319011261033c57610b88612721565b610b90612737565b610b9861274d565b90610ba1612763565b91610baa612779565b915f5160206131545f395f51905f52549460ff8660401c16159567ffffffffffffffff811680159081610d71575b6001149081610d67575b159081610d5e575b50610d4f5767ffffffffffffffff1981166001175f5160206131545f395f51905f5255610c4a919087610d23575b50610c216130a8565b610c296130a8565b60015f5160206131345f395f51905f5255610c426130a8565b6103646130a8565b610c526130a8565b60018060a01b03166001600160601b0360a01b600654161760065560018060a01b03166001600160601b0360a01b600254161760025560018060a01b03166001600160601b0360a01b600354161760035560018060a01b03166001600160601b0360a01b600954161760095560a435600455610ccb5780f35b68ff0000000000000000195f5160206131545f395f51905f5254165f5160206131545f395f51905f52557fc7f505b2f371ae2175ee4913f4499e1f2633a7b5936321eed1cdaeb6115181d2602060405160018152a180f35b68ffffffffffffffffff191668010000000000000001175f5160206131545f395f51905f52555f610c18565b63f92ee8a960e01b8852600488fd5b9050155f610bea565b303b159150610be2565b889150610bd8565b503461033c578060031936011261033c575f5160206130d45f395f51905f52546040516001600160a01b039091168152602090f35b503461033c578060031936011261033c57610dc7612fa3565b610dcf612f32565b600160ff195f5160206131145f395f51905f525416175f5160206131145f395f51905f52557f62e78cea01bee320cd4e420270b5ea74000d11b0c9f74754ebdbfc544b05a2586020604051338152a180f35b508060031936011261033c576020610e37612e17565b6040519015158152f35b503461033c578060031936011261033c576003546040516001600160a01b039091168152602090f35b50608036600319011261033c57600435602435610e8561274d565b90610e8e612763565b610e96612f32565b610e9e612fd6565b46840361117557818552600a60205260ff60408620541615611161575f5160206130f45f395f51905f52855284602052604085205480151580611158575b61114257505f5160206130f45f395f51905f5285526001602052604085205480151580611139575b6111235750600454808514908314818061111b575b1580611105575b61090557816110fc575b50156110f4578185526005602052604085205494853411156110af57610f508634612b24565b915f5160206130f45f395f51905f528252600d60205260408220610f75888254612c0b565b90555b5f5160206130f45f395f51905f528252600c60205260408220610f9c848254612c0b565b90556006546001600160a01b031690813b156110ab57604051635478424f60e11b8152466004820152602481018690525f5160206130f45f395f51905f5260448201526001600160a01b03878116606483015233608483015290911660a4820181905260c4820185905260e4820198909852908290829061010490829084905af1801561086457611096575b50506040805194855260208501929092526001600160a01b0390921690830152606082015233907f83c42659c8743025a55857e1a5535e0d6209a4fcc2c7c8587d2570892a077b529080608081015b0390a360015f5160206131345f395f51905f5255602060405160018152f35b6110a1828092612803565b61033c5780611028565b8280fd5b60405162461bcd60e51b815260206004820152601c60248201527f4272696467653a206d73672e76616c7565206d757374203e20666565000000006044820152606490fd5b843491610f78565b9050155f610f2a565b50811580611114575b15610f20565b508061110e565b508015610f19565b633efa150760e01b865260045234602452604485fd5b50803411610f04565b6358f8331360e11b865260045234602452604485fd5b50803410610edc565b632ef6974160e11b85526004829052602485fd5b631a26aa4d60e21b8552600485fd5b503461033c578060031936011261033c5761119d612fa3565b5f5160206130d45f395f51905f5280546001600160a01b0319811690915581906001600160a01b03167f8be0079c531659141344cd1fd0a4f28419497f9722a3daafe3b4186f6b6457e08280a380f35b503461033c576111fc3661278f565b9061120e999394979996929596612f32565b6002546001600160a01b0316331480156114af575b61122c9061294d565b468a036114a057888452600a60205260ff6040852054161561148c576001600160a01b038516808552600b602052604085205460ff161561147a57600454808b14908c148180611472575b159182611458575b5050610905576040516370a0823160e01b8152306004820152602081602481855afa90811561144d579088918791611414575b50106113b2576112c3878983612f59565b8452600c602052604084206112d9878254612b24565b90556006546001600160a01b031692833b156113ae57928a858b61131b82968d968c8e8d9b6040519c8d9b8c9a8b99630f5c3d0560e31b8b5260048b016129bf565b03925af1801561086457611399575b50506040805195865260208601969096526001600160a01b0393841695850195909552938216606084015260808301939093529091169030907f7add2d08613c9e66b48e0cd9188091059a1eeeceaeed10d42cb1720aa8dec767908060a081015b0390a3602060405160018152f35b6113a4828092612803565b61033c578061132a565b8480fd5b60405162461bcd60e51b815260206004820152603460248201527f506f6f6c4d616e616765723a20696e73756666696369656e7420746f6b656e206044820152733130b630b731b2903337b9103a3930b739b332b960611b6064820152608490fd5b9150506020813d602011611445575b8161143060209383612803565b81010312611441578790515f6112b2565b5f80fd5b3d9150611423565b6040513d88823e3d90fd5b1591508161146a575b50155f8061127f565b90505f611461565b508015611277565b6305fd61ad60e01b8552600452602484fd5b632ef6974160e11b84526004899052602484fd5b631a26aa4d60e21b8452600484fd5b505f5160206130d45f395f51905f52546001600160a01b03163314611223565b503461033c57602036600319011261033c576004359060075482101561033c5760206114fa83612912565b905460405160039290921b1c6001600160a01b03168152f35b503461033c57604036600319011261033c5761152d612721565b906024359161153a612f32565b611542612fd6565b6001600160a01b0316808252600b602052604082205490919060ff16156115d0576040906115728430338661300e565b828152600c60205220611586838254612c0b565b90556040519182527f4b3f81827ede20c81afbf1bb77b954afcdcae24d391d99042310cb1d9210dd5760203393a360015f5160206131345f395f51905f5255602060405160018152f35b6024916305fd61ad60e01b8252600452fd5b50604036600319011261033c57600435906001600160a01b038216820361033c576020610e3783611611612f32565b6009546001600160a01b031633148015611638575b61162f90612a11565b60243590612cea565b505f5160206130d45f395f51905f52546001600160a01b03163314611626565b503461033c578060031936011261033c57602060ff5f5160206131145f395f51905f5254166040519015158152f35b503461033c57602036600319011261033c5760ff60406020926004358152600a84522054166040519015158152f35b503461033c576116c5366128c0565b92909160018060a01b036002541633148015611797575b6116e59061294d565b6116f0848214612c61565b845b8181106116fd578580f35b61170b61041e828486612cc6565b90611717818787612cc6565b6001600160a01b039092169135821561173e576001928852826020526040882055016116f2565b60405162461bcd60e51b815260206004820152602b60248201527f506f6f6c4d616e616765723a7365744d61785472616e73666572416d6f756e7460448201526a103d32b937903a37b5b2b760a91b6064820152608490fd5b505f5160206130d45f395f51905f52546001600160a01b031633146116dc565b503461033c57602036600319011261033c576020906040906001600160a01b036117df612721565b168152600d83522054604051908152f35b5060c036600319011261033c576004356024359161180c61274d565b611814612763565b9161181d612779565b60a43591611829612f32565b611831612fd6565b468603611bda57868152600a60205260ff60408220541615611bc6576001600160a01b038516808252600b602052604082205490939060ff1615611bb2576004548088149089148180611baa575b1580611b94575b6109055785845283602052604084205480151580611b8b575b611b7457508584526001602052604084205480151580611b6b575b611b54575081611b4b575b5015611b3a578782526005602052604082205490813410611af5576118ea8234612b24565b8381611adc575b5f5160206130f45f395f51905f52915052600d60205260408320611916838254612c0b565b90555b6040516370a0823160e01b815230600482015290602082602481895afa918215611a9b578492611aa6575b506119519030338861300e565b6040516370a0823160e01b815230600482015290602082602481895afa8015611a9b578490611a67575b6119859250612b24565b938252600c6020526040822061199c858254612c0b565b90556006546001600160a01b031690813b156110ab5783889288858c6119de82968b8d6040519a8b998a988997635478424f60e11b8952339360048a01612c18565b03925af1801561086457611a52575b50506040805195865260208601969096526001600160a01b0393841695850195909552938216606084015260808301939093529091169033907f24136187bad583830e5c55416af2a551e1750b2b95b0e997565fba1badf10ed3908060a08101611077565b611a5d828092612803565b61033c57806119ed565b506020823d602011611a93575b81611a8160209383612803565b8101031261144157611985915161197b565b3d9150611a74565b6040513d86823e3d90fd5b9091506020813d602011611ad4575b81611ac260209383612803565b81010312611441575190611951611944565b3d9150611ab5565b808080611aee94335af161089a612b45565b5f836118f1565b60405162461bcd60e51b815260206004820152601f60248201527f4272696467653a20696e73756666696369656e74206e617469766520666565006044820152606490fd5b611b443415612b74565b8190611919565b9050155f6118c5565b633efa150760e01b85526004526024839052604484fd5b508084116118ba565b6358f8331360e11b85526004526024839052604484fd5b5080841061189f565b50811580611ba3575b15611886565b5080611b9d565b50801561187f565b6305fd61ad60e01b82526004849052602482fd5b632ef6974160e11b81526004879052602490fd5b631a26aa4d60e21b8152600490fd5b503461033c578060031936011261033c576020600454604051908152f35b503461033c578060031936011261033c57611c20612fa3565b5f5160206131145f395f51905f525460ff811615611c785760ff19165f5160206131145f395f51905f52557f5db9ee0a495bf2e6ff9c91a7834c1ba4fdd244a5e8aa4e537bd38aeae4b073aa6020604051338152a180f35b638dfc202b60e01b8252600482fd5b5061010036600319011261033c57600435602435611ca361274d565b90611cac612763565b93611cb5612779565b9060a43591611cc2612f32565b6002546001600160a01b031633148015611ead575b611ce09061294d565b468403611e9e57858252600a60205260ff60408320541615611e8a576004548087149085148180611e82575b159182611e68575b5050610905576001600160a01b03169581808080868b5af1611d34612b45565b5015611e59575f5160206130f45f395f51905f528252600c60205260408220611d5e848254612b24565b90556006546001600160a01b031690813b156110ab57829161012483926040519485938492630f5c3d0560e31b84528c60048501528a602485015260018060a01b038c1660448501525f5160206130f45f395f51905f52606485015260018060a01b031660848401528c60a48401528860c484015260c43560e484015260e4356101048401525af1801561086457611e44575b50506040805194855260208501929092526001600160a01b0390921690830152606082015230907f8d8454a7be4fbcefb655010094acefff31637210d0fa3861ad8d2a95eefb250f90806080810161138b565b611e4f828092612803565b61033c5780611df1565b6315dcba9160e31b8252600482fd5b15915081611e7a575b50155f80611d14565b90505f611e71565b508015611d0c565b632ef6974160e11b82526004869052602482fd5b631a26aa4d60e21b8252600482fd5b505f5160206130d45f395f51905f52546001600160a01b03163314611cd7565b503461033c577f9ca7c1e047552a8048d924a5a8d3c150eb861086a72a9100e5f19d1176c1b7466040611eff36612855565b929091611f0a612f32565b6009546001600160a01b031633148015611f96575b611f2890612a11565b60018060a01b031694858152600c602052611f4884838320541015612a98565b858152600c60205220611f5c838254612b24565b9055611f69828286612f59565b604080513381526001600160a01b03929092166020830152810191909152606090a2602060405160018152f35b505f5160206130d45f395f51905f52546001600160a01b03163314611f1f565b503461033c57611fc536612855565b9160018060a01b036009541633148015612160575b611fe390612a11565b6001600160a01b0316808452600b602052604084205460ff161561214e57808452600c6020528260408520541061211457808452600c6020526040842061202b848254612b24565b90555f5160206130f45f395f51905f52810361208b575081471061207c5782918291829182916001600160a01b03165af1612064612b45565b501561206d5780f35b6315dcba9160e31b8152600490fd5b63f6ed5e0160e01b8352600483fd5b9291906040516370a0823160e01b8152306004820152602081602481885afa908115611a9b5790839185916120df575b50106120cb576103699293612f59565b6311745b6160e21b83526004849052602483fd5b9150506020813d60201161210c575b816120fb60209383612803565b81010312611441578290515f6120bb565b3d91506120ee565b60405162461bcd60e51b81526020600482015260126024820152714e6f7420656e6f7567682062616c616e636560701b6044820152606490fd5b6305fd61ad60e01b8452600452602483fd5b505f5160206130d45f395f51905f52546001600160a01b03163314611fda565b503461033c5761218f36612855565b91612198612f32565b6009546001600160a01b031633148015612284575b6121b690612a11565b60018060a01b031692838152600d6020526121d78360408320541015612a98565b838152600d602052604081206121ee848254612b24565b90555f5160206130f45f395f51905f528414612219575061220e92612f59565b602060405160018152f35b60019350918291829182916001600160a01b03165af1612237612b45565b5015151461220e5760405162461bcd60e51b815260206004820152601c60248201527f6e617469766520746f6b656e207769746864726177206661696c6564000000006044820152606490fd5b505f5160206130d45f395f51905f52546001600160a01b031633146121ad565b503461033c578060031936011261033c576002546040516001600160a01b039091168152602090f35b503461033c57608036600319011261033c576122e7612721565b506122f0612737565b5060643567ffffffffffffffff811161086f573660238201121561086f57806004013561231c81612839565b6123296040519182612803565b8181523660248385010111612358578160246020940184830137010152604051630a85bd0160e11b8152602090f35b8380fd5b50346114415761236b3661278f565b949061237f99929899979397969496612f32565b6002546001600160a01b0316331480156126a5575b61239d9061294d565b46840361269657895f52600a60205260ff60405f2054161561268357600454808b14908514818061267b575b159182612661575b5050610905576040516331a9108f60e11b8152600481018a90526001600160a01b03831696906020816024818b5afa5f918161261d575b506125475750863b15612358576040516340c10f1960e01b81526001600160a01b038a166004820152602481018b90528481604481838c5af1801561253c57908591612527575b50505b6006546001600160a01b031691823b156113ae579185858d6124948a958f978f988f99869a6040519c8d9b8c9a8b99630f5c3d0560e31b8b5260048b016129bf565b03925af1801561086457612512575b604080518a8152602081018590526001600160a01b038087169282019290925260608101879052818816608082015290881660a082015260c081018990527febcf74b605da120e5eb27a974431a394ccc8baf4d459e22093bbce8d6be552da9060e090a1602060405160018152f35b61251d828092612803565b61033c57806124a3565b8161253191612803565b61235857835f61244f565b6040513d87823e3d90fd5b6001600160a01b031630036125b957863b1561235857604051632142170760e11b81523060048201526001600160a01b038a166024820152604481018b90528481606481838c5af1801561253c579085916125a4575b5050612452565b816125ae91612803565b61235857835f61259d565b863b15611441576040516340c10f1960e01b81526001600160a01b038a166004820152602481018b90525f81604481838c5af18015612612576125fd575b50612452565b61260a9194505f90612803565b5f925f6125f7565b6040513d5f823e3d90fd5b9091506020813d602011612659575b8161263960209383612803565b8101031261144157516001600160a01b038116810361144157905f612408565b3d915061262c565b15915081612673575b50155f806123d1565b90505f61266a565b5080156123c9565b89632ef6974160e11b5f5260045260245ffd5b631a26aa4d60e21b5f5260045ffd5b505f5160206130d45f395f51905f52546001600160a01b03163314612394565b34611441575f366003190112611441576006546040516001600160a01b039091168152602090f35b34611441576020366003190112611441576020906001600160a01b03612711612721565b165f52600e825260405f20548152f35b600435906001600160a01b038216820361144157565b602435906001600160a01b038216820361144157565b604435906001600160a01b038216820361144157565b606435906001600160a01b038216820361144157565b608435906001600160a01b038216820361144157565b6101209060031901126114415760043590602435906044356001600160a01b038116810361144157906064356001600160a01b038116810361144157906084356001600160a01b0381168103611441579060a4356001600160a01b0381168103611441579060c4359060e435906101043590565b90601f8019910116810190811067ffffffffffffffff82111761282557604052565b634e487b7160e01b5f52604160045260245ffd5b67ffffffffffffffff811161282557601f01601f191660200190565b6060906003190112611441576004356001600160a01b038116810361144157906024356001600160a01b0381168103611441579060443590565b9181601f840112156114415782359167ffffffffffffffff8311611441576020808501948460051b01011161144157565b60406003198201126114415760043567ffffffffffffffff811161144157816128eb9160040161288f565b929092916024359067ffffffffffffffff82116114415761290e9160040161288f565b9091565b60075481101561292a5760075f5260205f2001905f90565b634e487b7160e01b5f52603260045260245ffd5b60243590811515820361144157565b1561295457565b60405162461bcd60e51b815260206004820152603760248201527f506f6f6c4d616e616765723a6f6e6c7952654c61796572206f6e6c792072656c60448201527f617965722063616c6c20746869732066756e6374696f6e0000000000000000006064820152608490fd5b90815260208101919091526001600160a01b03918216604082015291811660608301529182166080820152911660a082015260c081019190915260e08101919091526101008101919091526101200190565b15612a1857565b60405162461bcd60e51b815260206004820152604c60248201527f506f6f6c4d616e616765723a6f6e6c7957697468647261774d616e616765722060448201527f6f6e6c79207769746864726177206d616e616765722063616e2063616c6c207460648201526b3434b990333ab731ba34b7b760a11b608482015260a490fd5b15612a9f57565b60405162461bcd60e51b815260206004820152605160248201527f506f6f6c4d616e616765722077697468647261774e6174697665546f6b656e4660448201527f726f6d4272696467653a20496e73756666696369656e7420746f6b656e2062616064820152701b185b98d9481a5b8818dbdb9d1c9858dd607a1b608482015260a490fd5b91908203918211612b3157565b634e487b7160e01b5f52601160045260245ffd5b3d15612b6f573d90612b5682612839565b91612b646040519384612803565b82523d5f602084013e565b606090565b15612b7b57565b60405162461bcd60e51b815260206004820152602660248201527f4272696467653a206e6f206e617469766520666565206f6e206e6f6e2d444f4c6044820152651031b430b4b760d11b6064820152608490fd5b15612bd657565b60405162461bcd60e51b815260206004820152600d60248201526c1c99599d5b990819985a5b1959609a1b6044820152606490fd5b91908201809211612b3157565b90815260208101919091526001600160a01b03918216604082015291811660608301529182166080820152911660a082015260c081019190915260e08101919091526101000190565b15612c6857565b60405162461bcd60e51b815260206004820152603060248201527f506f6f6c4d616e616765723a7365744d61785472616e73666572416d6f756e7460448201526f040d8cadccee8d040dad2e6dac2e8c6d60831b6064820152608490fd5b919081101561292a5760051b0190565b356001600160a01b03811681036114415790565b814710612d86575f5160206130f45f395f51905f525f52600c60205260405f20612d15838254612b24565b90556001600160a01b03165f80808085855af1612d30612b45565b5015612d805760607f9ca7c1e047552a8048d924a5a8d3c150eb861086a72a9100e5f19d1176c1b746915f5160206130f45f395f51905f52936040519133835260208301526040820152a2600190565b50505f90565b60405162461bcd60e51b815260206004820152605760248201527f506f6f6c4d616e616765722077697468647261774e6174697665546f6b656e4660448201527f726f6d4272696467653a20696e73756666696369656e74204e6174697665546f60648201527f6b656e2062616c616e636520696e20636f6e7472616374000000000000000000608482015260a490fd5b612e1f612f32565b612e27612fd6565b5f5160206130f45f395f51905f525f52600c60205260405f20612e4b348254612c0b565b90556040513481525f5160206130f45f395f51905f527f4b3f81827ede20c81afbf1bb77b954afcdcae24d391d99042310cb1d9210dd5760203393a360015f5160206131345f395f51905f5255600190565b6001600160a01b03168015612efb575f5160206130d45f395f51905f5280546001600160a01b0319811683179091556001600160a01b03167f8be0079c531659141344cd1fd0a4f28419497f9722a3daafe3b4186f6b6457e05f80a3565b631e4fbdf760e01b5f525f60045260245ffd5b81835290916001600160fb1b0383116114415760209260051b809284830137010190565b60ff5f5160206131145f395f51905f525416612f4a57565b63d93c066560e01b5f5260045ffd5b60405163a9059cbb60e01b60208201526001600160a01b0390921660248301526044820192909252612fa191612f9c82606481015b03601f198101845283612803565b613050565b565b5f5160206130d45f395f51905f52546001600160a01b03163303612fc357565b63118cdaa760e01b5f523360045260245ffd5b60025f5160206131345f395f51905f525414612fff5760025f5160206131345f395f51905f5255565b633ee5aeb560e01b5f5260045ffd5b6040516323b872dd60e01b60208201526001600160a01b0392831660248201529290911660448301526064820192909252612fa191612f9c8260848101612f8e565b905f602091828151910182855af115612612575f513d61309f57506001600160a01b0381163b155b61307f5750565b635274afe760e01b5f9081526001600160a01b0391909116600452602490fd5b60011415613078565b60ff5f5160206131545f395f51905f525460401c16156130c457565b631afcd79f60e31b5f5260045ffdfe9016d09d72d40fdae2fd8ceac6b6234c7706214fd39c1cd1e609a0528c199300000000000000000000000000eeeeeeeeeeeeeeeeeeeeeeeeeeeeeeeeeeeeeeeecd5ed15c6e187e77e9aee88184c21f4f2182ab5827cb3b7e07fbedcd63f033009b779b17422d0df92223018b32b4d1fa46e071723d6817e2486d003becc55f00f0c57e16840df040f15088dc2f81fe391c3923bec73e23a9662efc9c229c6a00a264697066735822122066dc83ae9ba72daf2a61457fe2809ff34e496c6612cd201c9a469d07cbf340f064736f6c634300081e0033f0c57e16840df040f15088dc2f81fe391c3923bec73e23a9662efc9c229c6a00",
        "linkReferences": {}
    },
    "methodIdentifiers": {
        "BridgeFinalizeERC20(uint256,uint256,address,address,address,address,uint256,uint256,uint256)": "6ec9f812",
        "BridgeFinalizeLocalNFT(uint256,uint256,address,address,address,address,uint256,uint256,uint256)": "131ba031",
        "BridgeFinalizeNativeToken(uint256,uint256,address,address,address,uint256,uint256,uint256)": "3b6f48d6",
        "BridgeInitiateERC20(uint256,uint256,address,address,address,uint256)": "4eb71542",
        "BridgeInitiateLocalNFT(uint256,uint256,address,address,uint256,address)": "d52b4df9",
        "BridgeInitiateNativeToken(uint256,uint256,address,address)": "72ad6b9b",
        "FeePoolValue(address)": "54dc027e",
        "FundingPoolBalance(address)": "dbb0481f",
        "IsSupportToken(address)": "dac29568",
        "IsSupportedChainId(uint256)": "5bc65b40",
        "NFTFeePool(address)": "0494e93d",
        "NativeTokenAddress()": "9b831525",
        "QuickSendAssertToUser(address,address,uint256)": "325e5d43",
        "SupportTokens(uint256)": "626417b5",
        "TokenMaxTransferAmount(address)": "ace30491",
        "TokenMinTransferAmount(address)": "e7bb7e63",
        "assetBalanceMessager()": "9c014432",
        "depositErc20ToBridge(address,uint256)": "60ba33ff",
        "depositNativeTokenToBridge()": "7ce13125",
        "dolChainId()": "4c79e3ef",
        "gasOracleAddress()": "786a8f58",
        "initialize(address,address,address,address,address,uint256)": "95b6ef0c",
        "messageManager()": "10875a13",
        "nativeBridgeFee(uint256)": "d62a6673",
        "onERC721Received(address,address,uint256,bytes)": "150b7a02",
        "owner()": "8da5cb5b",
        "pause()": "8456cb59",
        "paused()": "5c975abb",
        "relayerAddress()": "18a7cca8",
        "renounceOwnership()": "715018a6",
        "setMaxTransferAmount(address[],uint256[])": "55bd5915",
        "setMinTransferAmount(address[],uint256[])": "e1fe15c2",
        "setNativeBridgeFee(uint256[],uint256[])": "fcd9c816",
        "setSupportERC20Token(address,bool)": "ab0f9e19",
        "setValidChainId(uint256,bool)": "d73f14e5",
        "transferOwnership(address)": "f2fde38b",
        "unpause()": "3f4ba83a",
        "withdrawErc20FromBridge(address,address,uint256)": "34fa7f70",
        "withdrawFeeValue(address,address,uint256)": "240d1c77",
        "withdrawManager()": "ec3e9da5",
        "withdrawNativeTokenFromBridge(address,uint256)": "6068c993"
    },
    "id": 65
}